:100000000C942A000C9447000C9447000C94470071
:100010000C9404040C9447000C9447000C94470083
:100020000C9447000C9447000C9447000C94470034
:100030000C9447000C9447000C9447000C94470024
:100040000C9447000C9447000C9447000C94470014
:100050000C94470011241FBECFE5D8E0DEBFCDBF12
:1000600012E0A0E6B0E0E6E2FAE002C005900D92F0
:10007000AA3AB107D9F723E0AAEAB2E001C01D927B
:10008000AD36B207E1F70E9428040C9411050C94D8
:10009000000080FF02C0969A01C0969881FF02C0BE
:1000A000959A01C0959882FF02C0949A01C09498D5
:1000B00083FF02C0939A089593980895CF93C82F11
:1000C000979A82958F700E9449009798979A8C2FE3
:1000D0000E944900979880E18A95F1F700C0CF917E
:1000E0000895A8980C945E00A89A0C945E00CF9393
:1000F000DF93EC018991882319F00E947400FACFF4
:10010000DF91CF91089590E4699F800D112480685C
:100110000C94710081E00E94710083EF91E00197DF
:10012000F1F700C00000089582E00E94710083EFA3
:1001300091E00197F1F700C000000895CF938E9AE7
:100140008D9A8C9A8B9A8F9AA09A85EA9EE0019755
:10015000F1F700C00000A8989798C3E0979A83E051
:100160000E944900979881EE94E00197F1F700C052
:100170000000C15099F7979A82E00E944900979831
:1001800089EF90E00197F1F700C0000088E20E943B
:10019000710088E00E94710081E00E94710083EF8D
:1001A00091E00197F1F700C0000086E00E94710025
:1001B0008CE0CF910C947100CF93DF9300D000D0EE
:1001C000CDB7DEB719821A821B821C82092E000C61
:1001D000AA0BBB0B49815A816B817C814817590757
:1001E0006A077B0798F4E9EFF0E03197F1F700C078
:1001F000000049815A816B817C814F5F5F4F6F4F57
:100200007F4F49835A836B837C83E4CF0F900F9099
:100210000F900F90DF91CF9108958CE10E947100B3
:100220008CE00E94710084E190E00C94DC008C343E
:1002300011F40C940D01823551F488E10E94710093
:100240008CE00E94710084E190E00C94DC00089541
:10025000999906C084E690E00E94DC000E940D019E
:100260009A9907C084E690E00E94DC0082E50C9435
:1002700017010895CF93DF93EB01AC9A0E94DC0045
:10028000AC98CE01DF91CF910C94DC002F923F927D
:100290004F925F926F927F928F929F92AF92BF9296
:1002A000CF92DF92EF92FF920F931F93CF93DF9342
:1002B00000D000D0CDB7DEB77C014B0163E070E029
:1002C0000E94E9045B01C701880F991F9C012E0D54
:1002D0003F1D3A8329830AE413E01C821B828B8131
:1002E0009C81880F991F98012A543340281539059D
:1002F0000CF067C02B803C80FC01E25FFC4F3F01AB
:10030000C12CD12C4B805C8042185308F8018081AD
:1003100090E08156910927E0289FF001299FF00D78
:100320001124E40DF51DEE0FFF1FE05AFF4F8081F1
:100330009181029709F43FC060E08B810E948300A5
:10034000F801808190E08156910927E0289FF00113
:10035000299FF00D1124E40DF51DEE0FFF1FE05A4B
:10036000FF4F80819181009769F481E30E947400BE
:10037000F301EC0DFD1D81E090E091838083B501D8
:10038000C7010DC0019769F480E30E947400F30176
:10039000EC0DFD1D11821082B50189819A810E94A8
:1003A0003A012B813C812F5F3F4F3C832B8332E00E
:1003B000C30ED11CA7CFC7010E94DC000F5F1F4FE7
:1003C0008ECFFC01E25FFC4F22E030E031832083DE
:1003D0000F900F900F900F90DF91CF911F910F9181
:1003E000FF90EF90DF90CF90BF90AF909F908F9055
:1003F0007F906F905F904F903F902F900895682F5F
:1004000080E00E94830084E992E00C947700EF92F0
:10041000FF920F931F93CF93DF9380916B03909183
:100420006C038F599F4F90936903809368038136C3
:1004300091052CF410926C0310926B0309C08B375A
:10044000910534F089E190E090936C0380936B0305
:1004500060E08091AE020E948300809168030E9458
:10046000740061E08091AE020E9483008EE50E94DC
:100470007400999907C09A9905C00E948A00C1E04A
:10048000D0E095C0CB9913C0C091AC02D091AD0221
:10049000209769F488EC90E09093B3028093B202C5
:1004A00081E090E09093AD028093AC0280C0CB9B42
:1004B0002AC08091AC029091AD02019721F5809104
:1004C000AE029091AF02FC01E65BFC4F2091680305
:1004D000208301969093AF028093AE0284E690E071
:1004E0000E94DC0010926C0310926B0381E090E09C
:1004F0000E94FF011092AD021092AC021092B30262
:100500001092B20252C0CB9950C0C091AC02D091AF
:10051000AD02C130D10509F048C08091B20290917E
:10052000B302892B09F041C0E091AE02F091AF0215
:10053000E65BFC4F85E480838AE4E82E83E0F82EB6
:1005400000E010E08091AE029091AF020817190709
:1005500064F461E0802F0E948300F70181917F01A4
:100560000E9474000F5F1F4FEDCF805D0E947400EA
:1005700080E090E00E94FF011092AD021092AC0268
:1005800088EE93E00E94DC006091AE027091AF02B1
:1005900084EF91E00E9446011092AF021092AE02E9
:1005A0008CEB92E00E94DC0002C0C0E0D0E0CE0103
:1005B000DF91CF911F910F91FF90EF90089561E02F
:1005C0008091AE020E9483008EE50E94740099998A
:1005D00020C081E090E00E94FF0180E991E00E944C
:1005E000DC0060E08091AE020E9483008DE20E94F8
:1005F00074008091AE029091AF02FC01EE0FFF1FDC
:10060000EE52FD4F1182108201969093AF028093BB
:10061000AE029A9922C081E090E00E94FF0180E939
:1006200091E00E94DC0060E08091AE020E948300B5
:100630008EE20E9474008091AE029091AF02FC01A4
:10064000EE0FFF1FEE52FD4F21E030E0318320839B
:1006500001969093AF028093AE029A991BC099992C
:1006600019C084EF91E00E94DC00E091AE02F091AD
:10067000AF02EE0FFF1FEE52FD4F82E090E091833C
:1006800080831092AF021092AE020E948A0081E035
:1006900090E00895CB9908C084EF91E00E94DC00BF
:1006A0001092AF021092AE0280E090E00895EF92B7
:1006B000FF920F931F93CF93DF9380E090E00E940F
:1006C000FF0181E090E00E94FF0180914A03815682
:1006D0008A3120F4CEE0D3E010E014C00E949400F0
:1006E0008DE992E00E94770061E080E00E94830043
:1006F00082EA92E0DF91CF911F910F91FF90EF90EE
:100700000C9477007E0188819981029761F060E006
:10071000812F0E9483002296F7018081805D0E94D4
:1007200074001F5FEFCF8AE4E82E83E0F82EE70124
:100730008E018881853459F061E08C2F8E190E94DA
:1007400083002196F80180810E947400F1CFDF912F
:10075000CF911F910F91FF90EF90089589B38695E7
:100760008695869591E08927817090E00895CA9BCF
:1007700002C082E001C080E0C9998160089580E8EC
:1007800084BF84BF95B5986095BD95B5976095BDBC
:1007900094E093BD89BFD198D2988BB386608BBB10
:1007A000A49A8AB38ABB84B384BB84B384BB0E94FB
:1007B0009E000E94B70380936A03789408950E9474
:1007C000B70390916A039817D9F0933049F48130B8
:1007D000A9F420916B0330916C032F5F3F4F0AC047
:1007E000923061F481110AC020916B0330916C0347
:1007F0002150310930936C0320936B0380936A037B
:1008000081E090E00C94DC001F920F920FB60F92E3
:1008100011248F939F938091B2029091B30200971D
:1008200029F001979093B3028093B2028091B002B5
:100830009091B102009729F001979093B1028093B3
:10084000B0029F918F910F900FBE0F901F9018953F
:100850000E94BF03E12CF12C00E010E0C0E0D0E0EA
:1008600082E0C82ED12C0E94DF0301151105C1F4CE
:1008700080916B0390916C0397FF04C010926C03FE
:1008800010926B0380916B0390916C03039724F09B
:10089000D0926C03C0926B03E0906B03F0906C03FA
:1008A000CD2B89F40E94940087E692E00E947700A5
:1008B00061E080E00E94830080E792E00E94770080
:1008C000C1E0D0E0D0CF81E0E816F10481F182E010
:1008D000E816F10409F452C0E114F10489F7011596
:1008E0001105D1F461E080E00E94830089E792E085
:1008F0000E9477000E94AE03892B11F30E948A00A8
:1009000010926C0310926B0380E293E00E94DC0073
:100910008CE00E94710003C00130110589F60E942D
:100920000702892B09F050C001E010E0C9CF011582
:100930001105B9F461E080E00E94830082E892E052
:100940000E9477000E94AE03892B09F4B9CF88EE8C
:1009500093E00E94DC000E9457038CE00E9471002B
:1009600004C00230110509F0ABCF0E9428010E949B
:10097000AE03892B29F502E010E0A2CF0115110585
:10098000A1F461E080E00E9483008BE892E00E9485
:1009900077000E94AE03892B09F492CF0E948A004F
:1009A00088EE93E00E94DC0004C00330110509F0DA
:1009B00087CF0E94DF02892B19F403E010E080CF7B
:1009C00084EF91E00E94DC0000E010E0C0E0D0E0A5
:1009D0004ACF97FB072E16F4009407D077FD09D075
:1009E0000E94FD0407FC05D03EF4909581959F4F31
:1009F0000895709561957F4F0895AA1BBB1B51E127
:100A000007C0AA1FBB1FA617B70710F0A61BB70B7E
:100A1000881F991F5A95A9F780959095BC01CD0123
:060A20000895F894FFCFD9
:100A260000000100020000000000000000000100BC
:100A360000000000000002000000000001000000AD
:100A4600010000000200000000000100000000009C
:100A5600020000000000000000000200000000008C
:100A6600000000000000000000000100000002007D
:100A7600000000000100000000000200000000006D
:100A8600000000000000000000000200000000005E
:100A9600000000000200000000000000000000004E
:100AA600010001000100020000000000010000003A
:100AB600010002000000000000000000010000002C
:100AC600000002000000000001000100020000001A
:100AD600000000000000010000000200000000000D
:100AE60000000000010001000100020000000000FB
:100AF60000000000010001000000020000000000EC
:100B060001000100000001000200000000000000DA
:100B160001000000020000000000000000000000CC
:100B260000000200000000000000010002000000BA
:100B360000000000000000000000000001000200AC
:100B4600000000000000000001000100020000009B
:100B5600000000000000000000000100020000008C
:100B6600000001000000000001000200000000007B
:100B7600010000000100020000000000000001006A
:100B8600010000000000020000000000000001005B
:100B96000100010001000200000000000000010049
:100BA600010001000200000000000000000001003A
:100BB600010002000000000000000000000001002B
:100BC600020000000000000000000000000002001B
:100BD600000001000000000000000000020000000C
:100BE60001000100000000000000020000000100FA
:100BF60001000100000000000200000001000100E9
:100C060001000100000002000000010001000100D7
:100C160001000100020000000000000000000000CA
:100C2600000000000000024F70636A653A20200051
:100C36004E6164616A202020006E6164616A202032
:100C46002000777973776965746C00726F7A737AAE
:100C560079662E002020202020202020006272614C
:0A0C66006B0064616E7963680000A2
:00000001FF
